{
  "transactions": [
    {
      "hash": "0x44a5da3708a158925f8b2e03e6ecfdb5cb1f357f56a6e310ffb12fe160ee2229",
      "transactionType": "CALL",
      "contractName": null,
      "contractAddress": "0xde44838af761cfd9b2a104f35d257e4a0c515d4d",
      "function": "mint(address,string)",
      "arguments": [
        "0x0AedD694851871614012d67195a6DeE1930682cf",
        "ipfs://QmcUjeVxHGgASncc4p4uDJNrfVjd1YB7bD8ApYbaviwg6x"
      ],
      "transaction": {
        "from": "0x0aedd694851871614012d67195a6dee1930682cf",
        "to": "0xde44838af761cfd9b2a104f35d257e4a0c515d4d",
        "gas": "0x3692f",
        "value": "0x0",
        "input": "0xd0def5210000000000000000000000000aedd694851871614012d67195a6dee1930682cf00000000000000000000000000000000000000000000000000000000000000400000000000000000000000000000000000000000000000000000000000000035697066733a2f2f516d63556a65567848476741536e636334703475444a4e7266566a643159423762443841705962617669776736780000000000000000000000",
        "nonce": "0x7d",
        "chainId": "0x523"
      },
      "additionalContracts": [],
      "isFixedGasLimit": false
    }
  ],
  "receipts": [
    {
      "status": "0x1",
      "cumulativeGasUsed": "0x2782c",
      "logs": [
        {
          "address": "0xde44838af761cfd9b2a104f35d257e4a0c515d4d",
          "topics": [
            "0xddf252ad1be2c89b69c2b068fc378daa952ba7f163c4a11628f55a4df523b3ef",
            "0x0000000000000000000000000000000000000000000000000000000000000000",
            "0x0000000000000000000000000aedd694851871614012d67195a6dee1930682cf",
            "0x0000000000000000000000000000000000000000000000000000000000000000"
          ],
          "data": "0x",
          "blockHash": "0x7e00aa602825f6f86bc9e49155ac5e86f5bddc0f02eb9dfe87b4a5afaea1ed9d",
          "blockNumber": "0x12408f",
          "transactionHash": "0x44a5da3708a158925f8b2e03e6ecfdb5cb1f357f56a6e310ffb12fe160ee2229",
          "transactionIndex": "0x0",
          "logIndex": "0x0",
          "removed": false
        }
      ],
      "logsBloom": "0x00000000000000000000000000000000000000000000000000000000000000000000008000000000000000000000000000000000000000000000000000000000000000000000000000000008000000000000000000000000000000000000000000000000020000000000000000000800000000000000000000000010000000000000000000000000000000000000000000000000080000000000000000000040000000000000000000000000000000000000000000000000000000000000400000000002000000010000000000000000000000000008000000000000000020000000000000000000000000000000000000000000000000000000000000000000",
      "type": "0x0",
      "transactionHash": "0x44a5da3708a158925f8b2e03e6ecfdb5cb1f357f56a6e310ffb12fe160ee2229",
      "transactionIndex": "0x0",
      "blockHash": "0x7e00aa602825f6f86bc9e49155ac5e86f5bddc0f02eb9dfe87b4a5afaea1ed9d",
      "blockNumber": "0x12408f",
      "gasUsed": "0x2782c",
      "effectiveGasPrice": "0x174876e800",
      "from": "0x0aedd694851871614012d67195a6dee1930682cf",
      "to": "0xde44838af761cfd9b2a104f35d257e4a0c515d4d",
      "contractAddress": null
    }
  ],
  "libraries": [],
  "pending": [],
  "returns": {},
  "timestamp": 1740454566,
  "chain": 1315,
  "commit": null
}