{
  "transactions": [
    {
      "hash": "0xe8684a043b77faa5531b0e7a291b070a2c16a95bcfae705927d48fafe9222fca",
      "transactionType": "CALL",
      "contractName": null,
      "contractAddress": "0x0b3bce84da0f1f58177a3daf434f0ab0baf1050d",
      "function": "mint(address,string)",
      "arguments": [
        "0x0AedD694851871614012d67195a6DeE1930682cf",
        "ipfs://QmSeYhNoHcxJm22yKz6qyiPMi1KMmRko75qYNVQk1LgXxw"
      ],
      "transaction": {
        "from": "0x0aedd694851871614012d67195a6dee1930682cf",
        "to": "0x0b3bce84da0f1f58177a3daf434f0ab0baf1050d",
        "gas": "0x367a7",
        "value": "0x0",
        "input": "0xd0def5210000000000000000000000000aedd694851871614012d67195a6dee1930682cf00000000000000000000000000000000000000000000000000000000000000400000000000000000000000000000000000000000000000000000000000000035697066733a2f2f516d536559684e6f4863784a6d3232794b7a36717969504d69314b4d6d526b6f373571594e56516b314c675878770000000000000000000000",
        "nonce": "0x82",
        "chainId": "0x523"
      },
      "additionalContracts": [],
      "isFixedGasLimit": false
    }
  ],
  "receipts": [
    {
      "status": "0x1",
      "cumulativeGasUsed": "0x27710",
      "logs": [
        {
          "address": "0x0b3bce84da0f1f58177a3daf434f0ab0baf1050d",
          "topics": [
            "0xddf252ad1be2c89b69c2b068fc378daa952ba7f163c4a11628f55a4df523b3ef",
            "0x0000000000000000000000000000000000000000000000000000000000000000",
            "0x0000000000000000000000000aedd694851871614012d67195a6dee1930682cf",
            "0x0000000000000000000000000000000000000000000000000000000000000000"
          ],
          "data": "0x",
          "blockHash": "0x4ece4408a060a590d1b23c7b32cc6dec00d8f898f2abc9374cbe04fd97cade81",
          "blockNumber": "0x1242ee",
          "transactionHash": "0xe8684a043b77faa5531b0e7a291b070a2c16a95bcfae705927d48fafe9222fca",
          "transactionIndex": "0x0",
          "logIndex": "0x0",
          "removed": false
        }
      ],
      "logsBloom": "0x00000000000000000000000000000000000000000080000000000000000000000000008000000000000000000000000000000000000000000000000000000000000000000000000000000008000000000000000000000000000000000000000000000000020000000000000000000800000000000000000000000010000000000020000000000000000000000000000000000000080000000000000000000000000000000000000000000000000000000000000000000000000000000000400000000002000000000000000000000000000000000000000000000000000020000000000000000000000000000000000000000040000000000000000000000000",
      "type": "0x0",
      "transactionHash": "0xe8684a043b77faa5531b0e7a291b070a2c16a95bcfae705927d48fafe9222fca",
      "transactionIndex": "0x0",
      "blockHash": "0x4ece4408a060a590d1b23c7b32cc6dec00d8f898f2abc9374cbe04fd97cade81",
      "blockNumber": "0x1242ee",
      "gasUsed": "0x27710",
      "effectiveGasPrice": "0x174876e800",
      "from": "0x0aedd694851871614012d67195a6dee1930682cf",
      "to": "0x0b3bce84da0f1f58177a3daf434f0ab0baf1050d",
      "contractAddress": null
    }
  ],
  "libraries": [],
  "pending": [],
  "returns": {},
  "timestamp": 1740455859,
  "chain": 1315,
  "commit": null
}