{
  "transactions": [
    {
      "hash": "0x912ec82a2b75f61aa665d4dff13667cd2eceb06dda5686e8aae880da920022de",
      "transactionType": "CALL",
      "contractName": null,
      "contractAddress": "0xde44838af761cfd9b2a104f35d257e4a0c515d4d",
      "function": "mint(address,string)",
      "arguments": [
        "0x0AedD694851871614012d67195a6DeE1930682cf",
        "ipfs://QmSeYhNoHcxJm22yKz6qyiPMi1KMmRko75qYNVQk1LgXxw"
      ],
      "transaction": {
        "from": "0x0aedd694851871614012d67195a6dee1930682cf",
        "to": "0xde44838af761cfd9b2a104f35d257e4a0c515d4d",
        "gas": "0x2b0a8",
        "value": "0x0",
        "input": "0xd0def5210000000000000000000000000aedd694851871614012d67195a6dee1930682cf00000000000000000000000000000000000000000000000000000000000000400000000000000000000000000000000000000000000000000000000000000035697066733a2f2f516d536559684e6f4863784a6d3232794b7a36717969504d69314b4d6d526b6f373571594e56516b314c675878770000000000000000000000",
        "nonce": "0x7e",
        "chainId": "0x523"
      },
      "additionalContracts": [],
      "isFixedGasLimit": false
    }
  ],
  "receipts": [
    {
      "status": "0x1",
      "cumulativeGasUsed": "0x1f294",
      "logs": [
        {
          "address": "0xde44838af761cfd9b2a104f35d257e4a0c515d4d",
          "topics": [
            "0xddf252ad1be2c89b69c2b068fc378daa952ba7f163c4a11628f55a4df523b3ef",
            "0x0000000000000000000000000000000000000000000000000000000000000000",
            "0x0000000000000000000000000aedd694851871614012d67195a6dee1930682cf",
            "0x0000000000000000000000000000000000000000000000000000000000000001"
          ],
          "data": "0x",
          "blockHash": "0x4561ce2f82092096c92a1de11d359d717d520434fcc615f7c24ce75047d0b81b",
          "blockNumber": "0x12419c",
          "transactionHash": "0x912ec82a2b75f61aa665d4dff13667cd2eceb06dda5686e8aae880da920022de",
          "transactionIndex": "0x0",
          "logIndex": "0x0",
          "removed": false
        }
      ],
      "logsBloom": "0x00000000000000000000000000000000000000000000000000000000000000000000008000000000000000000000000000000000000000000000000000040000000000000000000000000008000000000000000000040000000000000000000000000000020000000000000000000800000000000000000000000010000000000000000000000000000000000000000000000000080000000000000000000040000000000000000000000000000000000000000000000000000000000000400000000002000000010000000000000000000000000008000000000000000060000000000000000000000000000000000000000000000000000000000000000000",
      "type": "0x0",
      "transactionHash": "0x912ec82a2b75f61aa665d4dff13667cd2eceb06dda5686e8aae880da920022de",
      "transactionIndex": "0x0",
      "blockHash": "0x4561ce2f82092096c92a1de11d359d717d520434fcc615f7c24ce75047d0b81b",
      "blockNumber": "0x12419c",
      "gasUsed": "0x1f294",
      "effectiveGasPrice": "0x174876e800",
      "from": "0x0aedd694851871614012d67195a6dee1930682cf",
      "to": "0xde44838af761cfd9b2a104f35d257e4a0c515d4d",
      "contractAddress": null
    }
  ],
  "libraries": [],
  "pending": [],
  "returns": {},
  "timestamp": 1740455138,
  "chain": 1315,
  "commit": null
}