{
  "transactions": [
    {
      "hash": "0x6dbefd06aca91b5fd0cac6cfc3cb6b84607a9e2684bcf2a071e193eaba147653",
      "transactionType": "CALL",
      "contractName": null,
      "contractAddress": "0x357764fc84943032a081a63eb4357d68db722e19",
      "function": "mint(address,string)",
      "arguments": [
        "0x0AedD694851871614012d67195a6DeE1930682cf",
        "ipfs://QmSeYhNoHcxJm22yKz6qyiPMi1KMmRko75qYNVQk1LgXxw"
      ],
      "transaction": {
        "from": "0x0aedd694851871614012d67195a6dee1930682cf",
        "to": "0x357764fc84943032a081a63eb4357d68db722e19",
        "gas": "0x367a7",
        "value": "0x0",
        "input": "0xd0def5210000000000000000000000000aedd694851871614012d67195a6dee1930682cf00000000000000000000000000000000000000000000000000000000000000400000000000000000000000000000000000000000000000000000000000000035697066733a2f2f516d536559684e6f4863784a6d3232794b7a36717969504d69314b4d6d526b6f373571594e56516b314c675878770000000000000000000000",
        "nonce": "0x80",
        "chainId": "0x523"
      },
      "additionalContracts": [],
      "isFixedGasLimit": false
    }
  ],
  "receipts": [
    {
      "status": "0x1",
      "cumulativeGasUsed": "0x27710",
      "logs": [
        {
          "address": "0x357764fc84943032a081a63eb4357d68db722e19",
          "topics": [
            "0xddf252ad1be2c89b69c2b068fc378daa952ba7f163c4a11628f55a4df523b3ef",
            "0x0000000000000000000000000000000000000000000000000000000000000000",
            "0x0000000000000000000000000aedd694851871614012d67195a6dee1930682cf",
            "0x0000000000000000000000000000000000000000000000000000000000000000"
          ],
          "data": "0x",
          "blockHash": "0x6f7ceb6e68ca74bc68249e100afa12d42bab02e56a267dc64373696db88ec4b8",
          "blockNumber": "0x12424a",
          "transactionHash": "0x6dbefd06aca91b5fd0cac6cfc3cb6b84607a9e2684bcf2a071e193eaba147653",
          "transactionIndex": "0x0",
          "logIndex": "0x0",
          "removed": false
        }
      ],
      "logsBloom": "0x00000000000000000000000000000000000000000000000000000000000000000000008000000000000000000800000000000000000000000000000000000800000000000000000000000008000000000000000000000000000000000000000000000000020000020000000000000800000000000000000000000010000000000000000000000000000000000000000000000000080000000000000000000000000000000000000000000000000000000000000000000000000000000000400000000002000000000000000000000000000000000000000000000000000020000000000000000000000000000000000000000000000000000000000000000000",
      "type": "0x0",
      "transactionHash": "0x6dbefd06aca91b5fd0cac6cfc3cb6b84607a9e2684bcf2a071e193eaba147653",
      "transactionIndex": "0x0",
      "blockHash": "0x6f7ceb6e68ca74bc68249e100afa12d42bab02e56a267dc64373696db88ec4b8",
      "blockNumber": "0x12424a",
      "gasUsed": "0x27710",
      "effectiveGasPrice": "0x174876e800",
      "from": "0x0aedd694851871614012d67195a6dee1930682cf",
      "to": "0x357764fc84943032a081a63eb4357d68db722e19",
      "contractAddress": null
    }
  ],
  "libraries": [],
  "pending": [],
  "returns": {},
  "timestamp": 1740455509,
  "chain": 1315,
  "commit": null
}