{
  "transactions": [
    {
      "hash": null,
      "transactionType": "CALL",
      "contractName": null,
      "contractAddress": "0x2e896b0b2fdb7457499b56aaaa4ae55bcb4cd316",
      "function": "registerLicenseTerms((bool,address,uint256,uint256,bool,bool,address,bytes,uint32,uint256,bool,bool,bool,bool,uint256,address,string))",
      "arguments": [
        "(true, 0xBe54FB168b3c982b7AaE60dB6CF75Bd8447b390E, 10000000000000000, 0, true, true, 0x0000000000000000000000000000000000000000, 0x, 0, 0, true, true, false, false, 0, 0xF2104833d386a2734a4eB3B8ad6FC6812F29E38E, ipfs://QmHash)"
      ],
      "transaction": {
        "from": "0x0aedd694851871614012d67195a6dee1930682cf",
        "to": "0x2e896b0b2fdb7457499b56aaaa4ae55bcb4cd316",
        "gas": "0x5418d",
        "value": "0x0",
        "input": "0x6e1b8d9000000000000000000000000000000000000000000000000000000000000000200000000000000000000000000000000000000000000000000000000000000001000000000000000000000000be54fb168b3c982b7aae60db6cf75bd8447b390e000000000000000000000000000000000000000000000000002386f26fc10000000000000000000000000000000000000000000000000000000000000000000000000000000000000000000000000000000000000000000000000000000000010000000000000000000000000000000000000000000000000000000000000001000000000000000000000000000000000000000000000000000000000000000000000000000000000000000000000000000000000000000000000000000002200000000000000000000000000000000000000000000000000000000000000000000000000000000000000000000000000000000000000000000000000000000000000000000000000000000000000000000000000000000000000000000000010000000000000000000000000000000000000000000000000000000000000001000000000000000000000000000000000000000000000000000000000000000000000000000000000000000000000000000000000000000000000000000000000000000000000000000000000000000000000000000000000000000000000000000000000000000000000000f2104833d386a2734a4eb3b8ad6fc6812f29e38e00000000000000000000000000000000000000000000000000000000000002400000000000000000000000000000000000000000000000000000000000000000000000000000000000000000000000000000000000000000000000000000000d697066733a2f2f516d4861736800000000000000000000000000000000000000",
        "nonce": "0x98",
        "chainId": "0x523"
      },
      "additionalContracts": [],
      "isFixedGasLimit": false
    }
  ],
  "receipts": [],
  "libraries": [],
  "pending": [],
  "returns": {},
  "timestamp": 1740482043,
  "chain": 1315,
  "commit": "0a26d8b"
}