{
  "transactions": [
    {
      "hash": "0x4de77cc8684f9f0f646e424dcd6607425584e96cff5772783153e63ad6d89d93",
      "transactionType": "CALL",
      "contractName": null,
      "contractAddress": "0x2e896b0b2fdb7457499b56aaaa4ae55bcb4cd316",
      "function": "registerLicenseTerms((bool,address,uint256,uint256,bool,bool,address,bytes,uint32,uint256,bool,bool,bool,bool,uint256,address,string))",
      "arguments": [
        "(true, 0xBe54FB168b3c982b7AaE60dB6CF75Bd8447b390E, 10000000000000000, 0, true, true, 0x0000000000000000000000000000000000000000, 0x, 0, 0, true, true, false, false, 0, 0xF2104833d386a2734a4eB3B8ad6FC6812F29E38E, ipfs://QmXZQpPxDC3DnzGhVr6yNs8qhzA8mZXJAZCQWAd4i7LJQt)"
      ],
      "transaction": {
        "from": "0x0aedd694851871614012d67195a6dee1930682cf",
        "to": "0x2e896b0b2fdb7457499b56aaaa4ae55bcb4cd316",
        "gas": "0x60850",
        "value": "0x0",
        "input": "0x6e1b8d9000000000000000000000000000000000000000000000000000000000000000200000000000000000000000000000000000000000000000000000000000000001000000000000000000000000be54fb168b3c982b7aae60db6cf75bd8447b390e000000000000000000000000000000000000000000000000002386f26fc10000000000000000000000000000000000000000000000000000000000000000000000000000000000000000000000000000000000000000000000000000000000010000000000000000000000000000000000000000000000000000000000000001000000000000000000000000000000000000000000000000000000000000000000000000000000000000000000000000000000000000000000000000000002200000000000000000000000000000000000000000000000000000000000000000000000000000000000000000000000000000000000000000000000000000000000000000000000000000000000000000000000000000000000000000000000010000000000000000000000000000000000000000000000000000000000000001000000000000000000000000000000000000000000000000000000000000000000000000000000000000000000000000000000000000000000000000000000000000000000000000000000000000000000000000000000000000000000000000000000000000000000000000f2104833d386a2734a4eb3b8ad6fc6812f29e38e000000000000000000000000000000000000000000000000000000000000024000000000000000000000000000000000000000000000000000000000000000000000000000000000000000000000000000000000000000000000000000000035697066733a2f2f516d585a51705078444333446e7a4768567236794e733871687a41386d5a584a415a43515741643469374c4a51740000000000000000000000",
        "nonce": "0x98",
        "chainId": "0x523"
      },
      "additionalContracts": [],
      "isFixedGasLimit": false
    }
  ],
  "receipts": [
    {
      "status": "0x1",
      "cumulativeGasUsed": "0x45e0f",
      "logs": [
        {
          "address": "0x2e896b0b2fdb7457499b56aaaa4ae55bcb4cd316",
          "topics": [
            "0xc0cd215d0b608421b2e8018c8113a4b008ea0c6044fbc739df6dc79c3b4c42b8",
            "0x000000000000000000000000000000000000000000000000000000000000023b",
            "0x0000000000000000000000002e896b0b2fdb7457499b56aaaa4ae55bcb4cd316"
          ],
          "data": "0x000000000000000000000000000000000000000000000000000000000000002000000000000000000000000000000000000000000000000000000000000002c000000000000000000000000000000000000000000000000000000000000000200000000000000000000000000000000000000000000000000000000000000001000000000000000000000000be54fb168b3c982b7aae60db6cf75bd8447b390e000000000000000000000000000000000000000000000000002386f26fc10000000000000000000000000000000000000000000000000000000000000000000000000000000000000000000000000000000000000000000000000000000000010000000000000000000000000000000000000000000000000000000000000001000000000000000000000000000000000000000000000000000000000000000000000000000000000000000000000000000000000000000000000000000002200000000000000000000000000000000000000000000000000000000000000000000000000000000000000000000000000000000000000000000000000000000000000000000000000000000000000000000000000000000000000000000000010000000000000000000000000000000000000000000000000000000000000001000000000000000000000000000000000000000000000000000000000000000000000000000000000000000000000000000000000000000000000000000000000000000000000000000000000000000000000000000000000000000000000000000000000000000000000000f2104833d386a2734a4eb3b8ad6fc6812f29e38e000000000000000000000000000000000000000000000000000000000000024000000000000000000000000000000000000000000000000000000000000000000000000000000000000000000000000000000000000000000000000000000035697066733a2f2f516d585a51705078444333446e7a4768567236794e733871687a41386d5a584a415a43515741643469374c4a51740000000000000000000000",
          "blockHash": "0xb09558093f272bb063f36b3e6aab9fd322c3b16a480733ad7dcde770378ce39d",
          "blockNumber": "0x127488",
          "transactionHash": "0x4de77cc8684f9f0f646e424dcd6607425584e96cff5772783153e63ad6d89d93",
          "transactionIndex": "0x0",
          "logIndex": "0x0",
          "removed": false
        }
      ],
      "logsBloom": "0x00000000000000000000000000000000000000000000000000000000000000000000000000000000000080000000000000000000000000000000000000000001000000000000000000000000000000000000000000000000000000000000000000000000000000000000000000000000000000000000000000000000000000000000000000000000000000000000001000000000000000800000000000000000000000000000000000000000000000000000000000000000002000200000000400000000000000000000000008000000000000000000000000000080000000002000008000000000020000000000000000000000000000000000000000000000",
      "type": "0x2",
      "transactionHash": "0x4de77cc8684f9f0f646e424dcd6607425584e96cff5772783153e63ad6d89d93",
      "transactionIndex": "0x0",
      "blockHash": "0xb09558093f272bb063f36b3e6aab9fd322c3b16a480733ad7dcde770378ce39d",
      "blockNumber": "0x127488",
      "gasUsed": "0x45e0f",
      "effectiveGasPrice": "0x174876e800",
      "from": "0x0aedd694851871614012d67195a6dee1930682cf",
      "to": "0x2e896b0b2fdb7457499b56aaaa4ae55bcb4cd316",
      "contractAddress": null
    }
  ],
  "libraries": [],
  "pending": [],
  "returns": {},
  "timestamp": 1740482849,
  "chain": 1315,
  "commit": "0a26d8b"
}